{
  "contractName": "RealStateContract",
  "abi": [
    {
      "inputs": [
        {
          "internalType": "uint256",
          "name": "",
          "type": "uint256"
        }
      ],
      "name": "realStateArray",
      "outputs": [
        {
          "internalType": "string",
          "name": "city",
          "type": "string"
        },
        {
          "internalType": "string",
          "name": "street",
          "type": "string"
        },
        {
          "internalType": "uint256",
          "name": "number",
          "type": "uint256"
        },
        {
          "internalType": "uint256",
          "name": "meters",
          "type": "uint256"
        },
        {
          "internalType": "uint256",
          "name": "registration",
          "type": "uint256"
        },
        {
          "internalType": "string",
          "name": "owner",
          "type": "string"
        }
      ],
      "stateMutability": "view",
      "type": "function",
      "constant": true
    },
    {
      "inputs": [
        {
          "internalType": "string",
          "name": "_city",
          "type": "string"
        },
        {
          "internalType": "string",
          "name": "_street",
          "type": "string"
        },
        {
          "internalType": "uint256",
          "name": "_number",
          "type": "uint256"
        },
        {
          "internalType": "uint256",
          "name": "_meters",
          "type": "uint256"
        },
        {
          "internalType": "uint256",
          "name": "_registration",
          "type": "uint256"
        },
        {
          "internalType": "string",
          "name": "_owner",
          "type": "string"
        }
      ],
      "name": "addRealState",
      "outputs": [],
      "stateMutability": "nonpayable",
      "type": "function"
    },
    {
      "inputs": [
        {
          "internalType": "uint256",
          "name": "_registration",
          "type": "uint256"
        }
      ],
      "name": "getRealStateByRegistration",
      "outputs": [
        {
          "components": [
            {
              "internalType": "string",
              "name": "city",
              "type": "string"
            },
            {
              "internalType": "string",
              "name": "street",
              "type": "string"
            },
            {
              "internalType": "uint256",
              "name": "number",
              "type": "uint256"
            },
            {
              "internalType": "uint256",
              "name": "meters",
              "type": "uint256"
            },
            {
              "internalType": "uint256",
              "name": "registration",
              "type": "uint256"
            },
            {
              "internalType": "string",
              "name": "owner",
              "type": "string"
            }
          ],
          "internalType": "struct RealStateContract.RealState",
          "name": "",
          "type": "tuple"
        }
      ],
      "stateMutability": "view",
      "type": "function",
      "constant": true
    },
    {
      "inputs": [
        {
          "internalType": "uint256",
          "name": "_registration",
          "type": "uint256"
        }
      ],
      "name": "deleteRealStateByRegistration",
      "outputs": [],
      "stateMutability": "nonpayable",
      "type": "function"
    },
    {
      "inputs": [
        {
          "internalType": "string",
          "name": "_city",
          "type": "string"
        }
      ],
      "name": "getRealStateByCity",
      "outputs": [
        {
          "components": [
            {
              "internalType": "string",
              "name": "city",
              "type": "string"
            },
            {
              "internalType": "string",
              "name": "street",
              "type": "string"
            },
            {
              "internalType": "uint256",
              "name": "number",
              "type": "uint256"
            },
            {
              "internalType": "uint256",
              "name": "meters",
              "type": "uint256"
            },
            {
              "internalType": "uint256",
              "name": "registration",
              "type": "uint256"
            },
            {
              "internalType": "string",
              "name": "owner",
              "type": "string"
            }
          ],
          "internalType": "struct RealStateContract.RealState[]",
          "name": "",
          "type": "tuple[]"
        }
      ],
      "stateMutability": "view",
      "type": "function",
      "constant": true
    }
  ],
  "bytecode": "0x608060405234801561001057600080fd5b50611a45806100206000396000f3fe608060405234801561001057600080fd5b50600436106100575760003560e01c80630de062371461005c57806318d381101461008c57806382e27eab146100a85780638324aa5b146100d857806393945aae146100f4575b600080fd5b61007660048036038101906100719190611140565b610129565b6040516100839190611398565b60405180910390f35b6100a660048036038101906100a191906113e6565b6104c6565b005b6100c260048036038101906100bd91906114d5565b610866565b6040516100cf9190611599565b60405180910390f35b6100f260048036038101906100ed91906114d5565b610b08565b005b61010e600480360381019061010991906114d5565b610d47565b60405161012096959493929190611614565b60405180910390f35b60606000805b6000805490508110156101b657848460405161014c9291906116c9565b604051809103902060008281548110610168576101676116e2565b5b90600052602060002090600602016000016040516101869190611806565b604051809103902014156101a357818061019f9061184c565b9250505b80806101ae9061184c565b91505061012f565b5060008167ffffffffffffffff8111156101d3576101d2611895565b5b60405190808252806020026020018201604052801561020c57816020015b6101f9610f2b565b8152602001906001900390816101f15790505b5090506000805b6000805490508110156104b95786866040516102309291906116c9565b60405180910390206000828154811061024c5761024b6116e2565b5b906000526020600020906006020160000160405161026a9190611806565b604051809103902014156104a6576000818154811061028c5761028b6116e2565b5b90600052602060002090600602016040518060c00160405290816000820180546102b590611740565b80601f01602080910402602001604051908101604052809291908181526020018280546102e190611740565b801561032e5780601f106103035761010080835404028352916020019161032e565b820191906000526020600020905b81548152906001019060200180831161031157829003601f168201915b5050505050815260200160018201805461034790611740565b80601f016020809104026020016040519081016040528092919081815260200182805461037390611740565b80156103c05780601f10610395576101008083540402835291602001916103c0565b820191906000526020600020905b8154815290600101906020018083116103a357829003601f168201915b505050505081526020016002820154815260200160038201548152602001600482015481526020016005820180546103f790611740565b80601f016020809104026020016040519081016040528092919081815260200182805461042390611740565b80156104705780601f1061044557610100808354040283529160200191610470565b820191906000526020600020905b81548152906001019060200180831161045357829003601f168201915b50505050508152505083838151811061048c5761048b6116e2565b5b602002602001018190525081806104a29061184c565b9250505b80806104b19061184c565b915050610213565b5081935050505092915050565b60005b6000805490508110156106bf5783600082815481106104eb576104ea6116e2565b5b90600052602060002090600602016004015414156106ac5760006040518060c001604052808c8c8080601f016020809104026020016040519081016040528093929190818152602001838380828437600081840152601f19601f8201169050808301925050505050505081526020018a8a8080601f016020809104026020016040519081016040528093929190818152602001838380828437600081840152601f19601f82011690508083019250505050505050815260200188815260200187815260200186815260200185858080601f016020809104026020016040519081016040528093929190818152602001838380828437600081840152601f19601f8201169050808301925050505050505081525090806001815401808255809150506001900390600052602060002090600602016000909190919091506000820151816000019080519060200190610643929190610f61565b506020820151816001019080519060200190610660929190610f61565b5060408201518160020155606082015181600301556080820151816004015560a082015181600501908051906020019061069b929190610f61565b5050506106a784610b08565b6106bf565b80806106b79061184c565b9150506104c9565b5060006040518060c001604052808b8b8080601f016020809104026020016040519081016040528093929190818152602001838380828437600081840152601f19601f82011690508083019250505050505050815260200189898080601f016020809104026020016040519081016040528093929190818152602001838380828437600081840152601f19601f82011690508083019250505050505050815260200187815260200186815260200185815260200184848080601f016020809104026020016040519081016040528093929190818152602001838380828437600081840152601f19601f8201169050808301925050505050505081525090806001815401808255809150506001900390600052602060002090600602016000909190919091506000820151816000019080519060200190610800929190610f61565b50602082015181600101908051906020019061081d929190610f61565b5060408201518160020155606082015181600301556080820151816004015560a0820151816005019080519060200190610858929190610f61565b505050505050505050505050565b61086e610f2b565b60005b600080549050811015610ac7578260008281548110610893576108926116e2565b5b9060005260206000209060060201600401541415610ab457600081815481106108bf576108be6116e2565b5b90600052602060002090600602016040518060c00160405290816000820180546108e890611740565b80601f016020809104026020016040519081016040528092919081815260200182805461091490611740565b80156109615780601f1061093657610100808354040283529160200191610961565b820191906000526020600020905b81548152906001019060200180831161094457829003601f168201915b5050505050815260200160018201805461097a90611740565b80601f01602080910402602001604051908101604052809291908181526020018280546109a690611740565b80156109f35780601f106109c8576101008083540402835291602001916109f3565b820191906000526020600020905b8154815290600101906020018083116109d657829003601f168201915b50505050508152602001600282015481526020016003820154815260200160048201548152602001600582018054610a2a90611740565b80601f0160208091040260200160405190810160405280929190818152602001828054610a5690611740565b8015610aa35780601f10610a7857610100808354040283529160200191610aa3565b820191906000526020600020905b815481529060010190602001808311610a8657829003601f168201915b505050505081525050915050610b03565b8080610abf9061184c565b915050610871565b506040517f08c379a0000000000000000000000000000000000000000000000000000000008152600401610afa90611936565b60405180910390fd5b919050565b60005b600080549050811015610d42578160008281548110610b2d57610b2c6116e2565b5b9060005260206000209060060201600401541415610d2f5760008181548110610b5957610b586116e2565b5b906000526020600020906006020160008082016000610b789190610fe7565b600182016000610b889190610fe7565b600282016000905560038201600090556004820160009055600582016000610bb09190610fe7565b505060008190505b6001600080549050610bca9190611956565b811015610cb5576000600182610be0919061198a565b81548110610bf157610bf06116e2565b5b906000526020600020906006020160008281548110610c1357610c126116e2565b5b90600052602060002090600602016000820181600001908054610c3590611740565b610c40929190611027565b506001820181600101908054610c5590611740565b610c60929190611027565b506002820154816002015560038201548160030155600482015481600401556005820181600501908054610c9390611740565b610c9e929190611027565b509050508080610cad9061184c565b915050610bb8565b506000805480610cc857610cc76119e0565b5b600190038181906000526020600020906006020160008082016000610ced9190610fe7565b600182016000610cfd9190610fe7565b600282016000905560038201600090556004820160009055600582016000610d259190610fe7565b5050905550610d44565b8080610d3a9061184c565b915050610b0b565b505b50565b60008181548110610d5757600080fd5b9060005260206000209060060201600091509050806000018054610d7a90611740565b80601f0160208091040260200160405190810160405280929190818152602001828054610da690611740565b8015610df35780601f10610dc857610100808354040283529160200191610df3565b820191906000526020600020905b815481529060010190602001808311610dd657829003601f168201915b505050505090806001018054610e0890611740565b80601f0160208091040260200160405190810160405280929190818152602001828054610e3490611740565b8015610e815780601f10610e5657610100808354040283529160200191610e81565b820191906000526020600020905b815481529060010190602001808311610e6457829003601f168201915b505050505090806002015490806003015490806004015490806005018054610ea890611740565b80601f0160208091040260200160405190810160405280929190818152602001828054610ed490611740565b8015610f215780601f10610ef657610100808354040283529160200191610f21565b820191906000526020600020905b815481529060010190602001808311610f0457829003601f168201915b5050505050905086565b6040518060c001604052806060815260200160608152602001600081526020016000815260200160008152602001606081525090565b828054610f6d90611740565b90600052602060002090601f016020900481019282610f8f5760008555610fd6565b82601f10610fa857805160ff1916838001178555610fd6565b82800160010185558215610fd6579182015b82811115610fd5578251825591602001919060010190610fba565b5b509050610fe391906110b4565b5090565b508054610ff390611740565b6000825580601f106110055750611024565b601f01602090049060005260206000209081019061102391906110b4565b5b50565b82805461103390611740565b90600052602060002090601f01602090048101928261105557600085556110a3565b82601f1061106657805485556110a3565b828001600101855582156110a357600052602060002091601f016020900482015b828111156110a2578254825591600101919060010190611087565b5b5090506110b091906110b4565b5090565b5b808211156110cd5760008160009055506001016110b5565b5090565b600080fd5b600080fd5b600080fd5b600080fd5b600080fd5b60008083601f840112611100576110ff6110db565b5b8235905067ffffffffffffffff81111561111d5761111c6110e0565b5b602083019150836001820283011115611139576111386110e5565b5b9250929050565b60008060208385031215611157576111566110d1565b5b600083013567ffffffffffffffff811115611175576111746110d6565b5b611181858286016110ea565b92509250509250929050565b600081519050919050565b600082825260208201905092915050565b6000819050602082019050919050565b600081519050919050565b600082825260208201905092915050565b60005b838110156111f35780820151818401526020810190506111d8565b83811115611202576000848401525b50505050565b6000601f19601f8301169050919050565b6000611224826111b9565b61122e81856111c4565b935061123e8185602086016111d5565b61124781611208565b840191505092915050565b6000819050919050565b61126581611252565b82525050565b600060c08301600083015184820360008601526112888282611219565b915050602083015184820360208601526112a28282611219565b91505060408301516112b7604086018261125c565b5060608301516112ca606086018261125c565b5060808301516112dd608086018261125c565b5060a083015184820360a08601526112f58282611219565b9150508091505092915050565b600061130e838361126b565b905092915050565b6000602082019050919050565b600061132e8261118d565b6113388185611198565b93508360208202850161134a856111a9565b8060005b8581101561138657848403895281516113678582611302565b945061137283611316565b925060208a0199505060018101905061134e565b50829750879550505050505092915050565b600060208201905081810360008301526113b28184611323565b905092915050565b6113c381611252565b81146113ce57600080fd5b50565b6000813590506113e0816113ba565b92915050565b600080600080600080600080600060c08a8c031215611408576114076110d1565b5b60008a013567ffffffffffffffff811115611426576114256110d6565b5b6114328c828d016110ea565b995099505060208a013567ffffffffffffffff811115611455576114546110d6565b5b6114618c828d016110ea565b975097505060406114748c828d016113d1565b95505060606114858c828d016113d1565b94505060806114968c828d016113d1565b93505060a08a013567ffffffffffffffff8111156114b7576114b66110d6565b5b6114c38c828d016110ea565b92509250509295985092959850929598565b6000602082840312156114eb576114ea6110d1565b5b60006114f9848285016113d1565b91505092915050565b600060c083016000830151848203600086015261151f8282611219565b915050602083015184820360208601526115398282611219565b915050604083015161154e604086018261125c565b506060830151611561606086018261125c565b506080830151611574608086018261125c565b5060a083015184820360a086015261158c8282611219565b9150508091505092915050565b600060208201905081810360008301526115b38184611502565b905092915050565b600082825260208201905092915050565b60006115d7826111b9565b6115e181856115bb565b93506115f18185602086016111d5565b6115fa81611208565b840191505092915050565b61160e81611252565b82525050565b600060c082019050818103600083015261162e81896115cc565b9050818103602083015261164281886115cc565b90506116516040830187611605565b61165e6060830186611605565b61166b6080830185611605565b81810360a083015261167d81846115cc565b9050979650505050505050565b600081905092915050565b82818337600083830152505050565b60006116b0838561168a565b93506116bd838584611695565b82840190509392505050565b60006116d68284866116a4565b91508190509392505050565b7f4e487b7100000000000000000000000000000000000000000000000000000000600052603260045260246000fd5b7f4e487b7100000000000000000000000000000000000000000000000000000000600052602260045260246000fd5b6000600282049050600182168061175857607f821691505b6020821081141561176c5761176b611711565b5b50919050565b60008190508160005260206000209050919050565b6000815461179481611740565b61179e818661168a565b945060018216600081146117b957600181146117ca576117fd565b60ff198316865281860193506117fd565b6117d385611772565b60005b838110156117f5578154818901526001820191506020810190506117d6565b838801955050505b50505092915050565b60006118128284611787565b915081905092915050565b7f4e487b7100000000000000000000000000000000000000000000000000000000600052601160045260246000fd5b600061185782611252565b91507fffffffffffffffffffffffffffffffffffffffffffffffffffffffffffffffff82141561188a5761188961181d565b5b600182019050919050565b7f4e487b7100000000000000000000000000000000000000000000000000000000600052604160045260246000fd5b7f4e6f7420666f756e64205265616c53746174652077697468207468697320726560008201527f67697374726174696f6e00000000000000000000000000000000000000000000602082015250565b6000611920602a836115bb565b915061192b826118c4565b604082019050919050565b6000602082019050818103600083015261194f81611913565b9050919050565b600061196182611252565b915061196c83611252565b92508282101561197f5761197e61181d565b5b828203905092915050565b600061199582611252565b91506119a083611252565b9250827fffffffffffffffffffffffffffffffffffffffffffffffffffffffffffffffff038211156119d5576119d461181d565b5b828201905092915050565b7f4e487b7100000000000000000000000000000000000000000000000000000000600052603160045260246000fdfea2646970667358221220ebf7aa4aaa63753c52cb8ba51355d3ca7ea3b7396b649c73f42903827ea15e1064736f6c634300080a0033",
  "immutableReferences": {},
  "source": "pragma solidity ^0.8.10;\n\nlibrary Shared {\n    struct RealState {\n        string city;\n        string street;\n        uint number;\n        uint meters;\n        uint registration;\n        string owner;\n        uint price;//nuevo campo\n    \n    }\n    \n}\n\n\ncontract RealStateContractCities {\n    address payable public administrator  = payable(0x50d3b84a2b1787b7704DD50c67733b6b5B293629);\n     uint public authorizedAddressesCount;\n    \n    mapping(address => bool) public authorizedAddresses;\n    address[] public authorizedAddressesList;\n    modifier onlyAdministrator() {\n        require(msg.sender == administrator, \"Only the administrator can call this function\");\n        _;\n    } \n    mapping( string => Shared.RealState[]) public realStateMap;\n    mapping(uint => Shared.RealState) public globalRealStateMap;\n   \nfunction addAuthorizedAddress(address _newAuthorized) public onlyAdministrator {\n        authorizedAddresses[_newAuthorized] = true;\n        authorizedAddressesList.push(_newAuthorized);\n    }\n\n\nfunction removeAuthorizedAddress(address _authorizedToRemove) public onlyAdministrator {\n        authorizedAddresses[_authorizedToRemove] = false;\n        // Encuentra y elimina la direccin de la lista\n        for (uint i = 0; i < authorizedAddressesList.length; i++) {\n            if (authorizedAddressesList[i] == _authorizedToRemove) {\n                authorizedAddressesList[i] = authorizedAddressesList[authorizedAddressesList.length - 1];\n                authorizedAddressesList.pop();\n                break;\n            }\n        }\n    }\nfunction getAuthorizedAddresses() public view returns (address[] memory) {\n        return authorizedAddressesList;\n    }\n\n\nfunction getRealStateByRegistration(uint _registration) public view returns (Shared.RealState memory) {\n        return globalRealStateMap[_registration];\n    }\n\nfunction getRealStateByCity (string calldata _city) public view returns(Shared.RealState[] memory) {\n        Shared.RealState[] memory result = realStateMap[_city];\n        for (uint i = 0; i < result.length; i++) {\n            if (msg.sender != administrator && !authorizedAddresses[msg.sender]) {\n                // Si el solicitante no es el administrador ni una direccin autorizada, ocultar el precio\n                result[i].price = 0;\n            }\n        }\n        return result;\n   }\nfunction addRealState(Shared.RealState calldata realState) public  {\n        require(msg.sender == administrator || authorizedAddresses[msg.sender], \"Not authorized\");\n\n        // Verificar si ya existe un RealState con el mismo registro\n        Shared.RealState storage existingRealState = globalRealStateMap[realState.registration];\n\n        if (existingRealState.registration != 0) {\n               \n            // Eliminar el RealState existente\n            deleteRealStateByRegistration(realState.registration);\n        }\n\n        realStateMap[realState.city].push(realState);\n        globalRealStateMap[realState.registration] = realState;\n       \n    }\n\n      function deleteRealStateByRegistration(uint _registration) public {\n        // Obtener la ciudad del RealState a eliminar\n        string memory city = globalRealStateMap[_registration].city;\n\n        // Encontrar y eliminar el RealState en el mapeo por ciudad\n        for (uint i = 0; i < realStateMap[city].length; i++) {\n            if (realStateMap[city][i].registration == _registration) {\n                 // Reorganizar el array despus de la eliminacin\n                if (i < realStateMap[city].length - 1) {\n                    realStateMap[city][i] = realStateMap[city][realStateMap[city].length - 1];\n                }\n                // Reducir la longitud del array\n                realStateMap[city].pop();\n            \n                break;\n            }\n        }\n\n        // Eliminar el RealState del mapeo global\n        delete globalRealStateMap[_registration];\n    }\n\n}\n\n\ncontract RealStateContract{\n        struct RealState {\n        string city;\n        string street;\n        uint number;\n        uint meters;\n        uint registration;\n        string owner;\n\n    }\n    RealState[] public realStateArray;\n    \n    function addRealState(string calldata _city, string calldata _street, \n            uint _number, uint _meters, uint _registration, string calldata _owner) public {\n           // Verificar si ya existe una propiedad con el mismo registration\n        for (uint i = 0; i < realStateArray.length; i++) {\n            if (realStateArray[i].registration == _registration) {\n                 realStateArray.push(RealState(_city,_street,_number,_meters,_registration,_owner));\n                // Eliminar el RealState existente\n                deleteRealStateByRegistration(_registration);\n                break;\n            }\n        }\n        \n        realStateArray.push(RealState(_city,_street,_number,_meters,_registration,_owner));\n    }\n    \n      function getRealStateByRegistration (uint _registration) public view returns(RealState memory) {\n        for(uint i =0; i < realStateArray.length; i++){\n            if (realStateArray[i].registration == _registration){\n                return realStateArray[i];\n            }\n        }\n                revert(\"Not found RealState with this registration\");\n    }\n    function deleteRealStateByRegistration(uint _registration) public {\n        for(uint i =0; i < realStateArray.length; i++){\n            if (realStateArray[i].registration == _registration){\n                delete realStateArray[i];\n\n                for(uint j =i; j < realStateArray.length-1; j++){\n                    realStateArray[j] = realStateArray[j+1];\n                }\n\n                realStateArray.pop(); // delete the last\n                // Important to reduce -1 the leght of array\n\n                return; // for finish method\n            }\n        }\n    }\n   \n    function getRealStateByCity (string calldata _city) public view returns(RealState[] memory) {\n        uint resultLength = 0;\n        for(uint i =0; i < realStateArray.length; i++){\n            if (keccak256(bytes(realStateArray[i].city)) == keccak256(bytes(_city))){\n                resultLength++;\n            }\n        }\n        RealState[] memory rsReturn = new RealState[](resultLength);\n\n        uint positionInsert = 0;\n        for(uint i =0; i < realStateArray.length; i++){\n            if (keccak256(bytes(realStateArray[i].city)) == keccak256(bytes(_city))){\n                rsReturn[positionInsert] = realStateArray[i];\n                positionInsert++;\n            }\n        }\n\n        return rsReturn;\n    }\n\n    \n\n\n\n}\n",
  "sourcePath": "/Users/tonny/blockchain/estructura de datos/MyContracts3/contracts/RealStateContract.sol",
  "compiler": {
    "name": "solc",
    "version": "0.8.10+commit.fc410830.Emscripten.clang"
  },
  "schemaVersion": "3.4.16",
  "updatedAt": "2024-01-10T07:30:03.496Z",
  "networkType": "ethereum",
  "devdoc": {
    "kind": "dev",
    "methods": {},
    "version": 1
  },
  "userdoc": {
    "kind": "user",
    "methods": {},
    "version": 1
  }
}