{
  "contractName": "RealStateContractCities",
  "abi": [
    {
      "inputs": [],
      "name": "administrator",
      "outputs": [
        {
          "internalType": "address payable",
          "name": "",
          "type": "address"
        }
      ],
      "stateMutability": "view",
      "type": "function",
      "constant": true
    },
    {
      "inputs": [
        {
          "internalType": "address",
          "name": "",
          "type": "address"
        }
      ],
      "name": "authorizedAddresses",
      "outputs": [
        {
          "internalType": "bool",
          "name": "",
          "type": "bool"
        }
      ],
      "stateMutability": "view",
      "type": "function",
      "constant": true
    },
    {
      "inputs": [],
      "name": "authorizedAddressesCount",
      "outputs": [
        {
          "internalType": "uint256",
          "name": "",
          "type": "uint256"
        }
      ],
      "stateMutability": "view",
      "type": "function",
      "constant": true
    },
    {
      "inputs": [
        {
          "internalType": "uint256",
          "name": "",
          "type": "uint256"
        }
      ],
      "name": "authorizedAddressesList",
      "outputs": [
        {
          "internalType": "address",
          "name": "",
          "type": "address"
        }
      ],
      "stateMutability": "view",
      "type": "function",
      "constant": true
    },
    {
      "inputs": [
        {
          "internalType": "uint256",
          "name": "",
          "type": "uint256"
        }
      ],
      "name": "globalRealStateMap",
      "outputs": [
        {
          "internalType": "string",
          "name": "city",
          "type": "string"
        },
        {
          "internalType": "string",
          "name": "street",
          "type": "string"
        },
        {
          "internalType": "uint256",
          "name": "number",
          "type": "uint256"
        },
        {
          "internalType": "uint256",
          "name": "meters",
          "type": "uint256"
        },
        {
          "internalType": "uint256",
          "name": "registration",
          "type": "uint256"
        },
        {
          "internalType": "string",
          "name": "owner",
          "type": "string"
        },
        {
          "internalType": "uint256",
          "name": "price",
          "type": "uint256"
        }
      ],
      "stateMutability": "view",
      "type": "function",
      "constant": true
    },
    {
      "inputs": [
        {
          "internalType": "string",
          "name": "",
          "type": "string"
        },
        {
          "internalType": "uint256",
          "name": "",
          "type": "uint256"
        }
      ],
      "name": "realStateMap",
      "outputs": [
        {
          "internalType": "string",
          "name": "city",
          "type": "string"
        },
        {
          "internalType": "string",
          "name": "street",
          "type": "string"
        },
        {
          "internalType": "uint256",
          "name": "number",
          "type": "uint256"
        },
        {
          "internalType": "uint256",
          "name": "meters",
          "type": "uint256"
        },
        {
          "internalType": "uint256",
          "name": "registration",
          "type": "uint256"
        },
        {
          "internalType": "string",
          "name": "owner",
          "type": "string"
        },
        {
          "internalType": "uint256",
          "name": "price",
          "type": "uint256"
        }
      ],
      "stateMutability": "view",
      "type": "function",
      "constant": true
    },
    {
      "inputs": [
        {
          "internalType": "address",
          "name": "_newAuthorized",
          "type": "address"
        }
      ],
      "name": "addAuthorizedAddress",
      "outputs": [],
      "stateMutability": "nonpayable",
      "type": "function"
    },
    {
      "inputs": [
        {
          "internalType": "address",
          "name": "_authorizedToRemove",
          "type": "address"
        }
      ],
      "name": "removeAuthorizedAddress",
      "outputs": [],
      "stateMutability": "nonpayable",
      "type": "function"
    },
    {
      "inputs": [],
      "name": "getAuthorizedAddresses",
      "outputs": [
        {
          "internalType": "address[]",
          "name": "",
          "type": "address[]"
        }
      ],
      "stateMutability": "view",
      "type": "function",
      "constant": true
    },
    {
      "inputs": [
        {
          "internalType": "uint256",
          "name": "_registration",
          "type": "uint256"
        }
      ],
      "name": "getRealStateByRegistration",
      "outputs": [
        {
          "components": [
            {
              "internalType": "string",
              "name": "city",
              "type": "string"
            },
            {
              "internalType": "string",
              "name": "street",
              "type": "string"
            },
            {
              "internalType": "uint256",
              "name": "number",
              "type": "uint256"
            },
            {
              "internalType": "uint256",
              "name": "meters",
              "type": "uint256"
            },
            {
              "internalType": "uint256",
              "name": "registration",
              "type": "uint256"
            },
            {
              "internalType": "string",
              "name": "owner",
              "type": "string"
            },
            {
              "internalType": "uint256",
              "name": "price",
              "type": "uint256"
            }
          ],
          "internalType": "struct Shared.RealState",
          "name": "",
          "type": "tuple"
        }
      ],
      "stateMutability": "view",
      "type": "function",
      "constant": true
    },
    {
      "inputs": [
        {
          "internalType": "string",
          "name": "_city",
          "type": "string"
        }
      ],
      "name": "getRealStateByCity",
      "outputs": [
        {
          "components": [
            {
              "internalType": "string",
              "name": "city",
              "type": "string"
            },
            {
              "internalType": "string",
              "name": "street",
              "type": "string"
            },
            {
              "internalType": "uint256",
              "name": "number",
              "type": "uint256"
            },
            {
              "internalType": "uint256",
              "name": "meters",
              "type": "uint256"
            },
            {
              "internalType": "uint256",
              "name": "registration",
              "type": "uint256"
            },
            {
              "internalType": "string",
              "name": "owner",
              "type": "string"
            },
            {
              "internalType": "uint256",
              "name": "price",
              "type": "uint256"
            }
          ],
          "internalType": "struct Shared.RealState[]",
          "name": "",
          "type": "tuple[]"
        }
      ],
      "stateMutability": "view",
      "type": "function",
      "constant": true
    },
    {
      "inputs": [
        {
          "components": [
            {
              "internalType": "string",
              "name": "city",
              "type": "string"
            },
            {
              "internalType": "string",
              "name": "street",
              "type": "string"
            },
            {
              "internalType": "uint256",
              "name": "number",
              "type": "uint256"
            },
            {
              "internalType": "uint256",
              "name": "meters",
              "type": "uint256"
            },
            {
              "internalType": "uint256",
              "name": "registration",
              "type": "uint256"
            },
            {
              "internalType": "string",
              "name": "owner",
              "type": "string"
            },
            {
              "internalType": "uint256",
              "name": "price",
              "type": "uint256"
            }
          ],
          "internalType": "struct Shared.RealState",
          "name": "realState",
          "type": "tuple"
        }
      ],
      "name": "addRealState",
      "outputs": [],
      "stateMutability": "nonpayable",
      "type": "function"
    },
    {
      "inputs": [
        {
          "internalType": "uint256",
          "name": "_registration",
          "type": "uint256"
        }
      ],
      "name": "deleteRealStateByRegistration",
      "outputs": [],
      "stateMutability": "nonpayable",
      "type": "function"
    }
  ],
  "bytecode": "0x60806040527350d3b84a2b1787b7704dd50c67733b6b5b2936296000806101000a81548173ffffffffffffffffffffffffffffffffffffffff021916908373ffffffffffffffffffffffffffffffffffffffff16021790555034801561006457600080fd5b50612833806100746000396000f3fe608060405234801561001057600080fd5b50600436106100cf5760003560e01c806382e27eab1161008c578063a1ec81b611610066578063a1ec81b614610240578063d39de6e91461025e578063f19e207e1461027c578063f53d0a8e146102ac576100cf565b806382e27eab146101be5780638324aa5b146101ee57806394fed8481461020a576100cf565b80630de06237146100d45780630e5e879a1461010457806320fc9d241461013457806342f1181e14610150578063707129391461016c5780637946bcf414610188575b600080fd5b6100ee60048036038101906100e991906117cf565b6102ca565b6040516100fb9190611a3a565b60405180910390f35b61011e60048036038101906101199190611a88565b61061f565b60405161012b9190611af6565b60405180910390f35b61014e60048036038101906101499190611b35565b61065e565b005b61016a60048036038101906101659190611baa565b610806565b005b61018660048036038101906101819190611baa565b610952565b005b6101a2600480360381019061019d9190611d07565b610bc9565b6040516101b59796959493929190611dbc565b60405180910390f35b6101d860048036038101906101d39190611a88565b610dd6565b6040516101e59190611eea565b60405180910390f35b61020860048036038101906102039190611a88565b610fe1565b005b610224600480360381019061021f9190611a88565b61137d565b6040516102379796959493929190611dbc565b60405180910390f35b610248611557565b6040516102559190611f0c565b60405180910390f35b61026661155d565b6040516102739190611fe5565b60405180910390f35b61029660048036038101906102919190611baa565b6115eb565b6040516102a39190612022565b60405180910390f35b6102b461160b565b6040516102c1919061205e565b60405180910390f35b60606000600484846040516102e09291906120a9565b9081526020016040518091039020805480602002602001604051908101604052809291908181526020016000905b8282101561051e57838290600052602060002090600702016040518060e0016040529081600082018054610341906120f1565b80601f016020809104026020016040519081016040528092919081815260200182805461036d906120f1565b80156103ba5780601f1061038f576101008083540402835291602001916103ba565b820191906000526020600020905b81548152906001019060200180831161039d57829003601f168201915b505050505081526020016001820180546103d3906120f1565b80601f01602080910402602001604051908101604052809291908181526020018280546103ff906120f1565b801561044c5780601f106104215761010080835404028352916020019161044c565b820191906000526020600020905b81548152906001019060200180831161042f57829003601f168201915b50505050508152602001600282015481526020016003820154815260200160048201548152602001600582018054610483906120f1565b80601f01602080910402602001604051908101604052809291908181526020018280546104af906120f1565b80156104fc5780601f106104d1576101008083540402835291602001916104fc565b820191906000526020600020905b8154815290600101906020018083116104df57829003601f168201915b505050505081526020016006820154815250508152602001906001019061030e565b50505050905060005b81518110156106145760008054906101000a900473ffffffffffffffffffffffffffffffffffffffff1673ffffffffffffffffffffffffffffffffffffffff163373ffffffffffffffffffffffffffffffffffffffff16141580156105d65750600260003373ffffffffffffffffffffffffffffffffffffffff1673ffffffffffffffffffffffffffffffffffffffff16815260200190815260200160002060009054906101000a900460ff16155b156106015760008282815181106105f0576105ef612123565b5b602002602001015160c00181815250505b808061060c90612181565b915050610527565b508091505092915050565b6003818154811061062f57600080fd5b906000526020600020016000915054906101000a900473ffffffffffffffffffffffffffffffffffffffff1681565b60008054906101000a900473ffffffffffffffffffffffffffffffffffffffff1673ffffffffffffffffffffffffffffffffffffffff163373ffffffffffffffffffffffffffffffffffffffff1614806107015750600260003373ffffffffffffffffffffffffffffffffffffffff1673ffffffffffffffffffffffffffffffffffffffff16815260200190815260200160002060009054906101000a900460ff165b610740576040517f08c379a000000000000000000000000000000000000000000000000000000000815260040161073790612216565b60405180910390fd5b6000600560008360800135815260200190815260200160002090506000816004015414610775576107748260800135610fe1565b5b60048280600001906107879190612245565b6040516107959291906120a9565b908152602001604051809103902082908060018154018082558091505060019003906000526020600020906007020160009091909190915081816107d991906126b2565b505081600560008460800135815260200190815260200160002081816107ff91906126b2565b9050505050565b60008054906101000a900473ffffffffffffffffffffffffffffffffffffffff1673ffffffffffffffffffffffffffffffffffffffff163373ffffffffffffffffffffffffffffffffffffffff1614610894576040517f08c379a000000000000000000000000000000000000000000000000000000000815260040161088b90612732565b60405180910390fd5b6001600260008373ffffffffffffffffffffffffffffffffffffffff1673ffffffffffffffffffffffffffffffffffffffff16815260200190815260200160002060006101000a81548160ff0219169083151502179055506003819080600181540180825580915050600190039060005260206000200160009091909190916101000a81548173ffffffffffffffffffffffffffffffffffffffff021916908373ffffffffffffffffffffffffffffffffffffffff16021790555050565b60008054906101000a900473ffffffffffffffffffffffffffffffffffffffff1673ffffffffffffffffffffffffffffffffffffffff163373ffffffffffffffffffffffffffffffffffffffff16146109e0576040517f08c379a00000000000000000000000000000000000000000000000000000000081526004016109d790612732565b60405180910390fd5b6000600260008373ffffffffffffffffffffffffffffffffffffffff1673ffffffffffffffffffffffffffffffffffffffff16815260200190815260200160002060006101000a81548160ff02191690831515021790555060005b600380549050811015610bc5578173ffffffffffffffffffffffffffffffffffffffff1660038281548110610a7357610a72612123565b5b9060005260206000200160009054906101000a900473ffffffffffffffffffffffffffffffffffffffff1673ffffffffffffffffffffffffffffffffffffffff161415610bb25760036001600380549050610ace9190612752565b81548110610adf57610ade612123565b5b9060005260206000200160009054906101000a900473ffffffffffffffffffffffffffffffffffffffff1660038281548110610b1e57610b1d612123565b5b9060005260206000200160006101000a81548173ffffffffffffffffffffffffffffffffffffffff021916908373ffffffffffffffffffffffffffffffffffffffff1602179055506003805480610b7857610b77612786565b5b6001900381819060005260206000200160006101000a81549073ffffffffffffffffffffffffffffffffffffffff02191690559055610bc5565b8080610bbd90612181565b915050610a3b565b5050565b6004828051602081018201805184825260208301602085012081835280955050505050508181548110610bfb57600080fd5b906000526020600020906007020160009150915050806000018054610c1f906120f1565b80601f0160208091040260200160405190810160405280929190818152602001828054610c4b906120f1565b8015610c985780601f10610c6d57610100808354040283529160200191610c98565b820191906000526020600020905b815481529060010190602001808311610c7b57829003601f168201915b505050505090806001018054610cad906120f1565b80601f0160208091040260200160405190810160405280929190818152602001828054610cd9906120f1565b8015610d265780601f10610cfb57610100808354040283529160200191610d26565b820191906000526020600020905b815481529060010190602001808311610d0957829003601f168201915b505050505090806002015490806003015490806004015490806005018054610d4d906120f1565b80601f0160208091040260200160405190810160405280929190818152602001828054610d79906120f1565b8015610dc65780601f10610d9b57610100808354040283529160200191610dc6565b820191906000526020600020905b815481529060010190602001808311610da957829003601f168201915b5050505050908060060154905087565b610dde61162f565b600560008381526020019081526020016000206040518060e0016040529081600082018054610e0c906120f1565b80601f0160208091040260200160405190810160405280929190818152602001828054610e38906120f1565b8015610e855780601f10610e5a57610100808354040283529160200191610e85565b820191906000526020600020905b815481529060010190602001808311610e6857829003601f168201915b50505050508152602001600182018054610e9e906120f1565b80601f0160208091040260200160405190810160405280929190818152602001828054610eca906120f1565b8015610f175780601f10610eec57610100808354040283529160200191610f17565b820191906000526020600020905b815481529060010190602001808311610efa57829003601f168201915b50505050508152602001600282015481526020016003820154815260200160048201548152602001600582018054610f4e906120f1565b80601f0160208091040260200160405190810160405280929190818152602001828054610f7a906120f1565b8015610fc75780601f10610f9c57610100808354040283529160200191610fc7565b820191906000526020600020905b815481529060010190602001808311610faa57829003601f168201915b505050505081526020016006820154815250509050919050565b6000600560008381526020019081526020016000206000018054611004906120f1565b80601f0160208091040260200160405190810160405280929190818152602001828054611030906120f1565b801561107d5780601f106110525761010080835404028352916020019161107d565b820191906000526020600020905b81548152906001019060200180831161106057829003601f168201915b5050505050905060005b60048260405161109791906127e6565b90815260200160405180910390208054905081101561131257826004836040516110c191906127e6565b908152602001604051809103902082815481106110e1576110e0612123565b5b90600052602060002090600702016004015414156112ff57600160048360405161110b91906127e6565b9081526020016040518091039020805490506111279190612752565b8110156112635760048260405161113e91906127e6565b9081526020016040518091039020600160048460405161115e91906127e6565b90815260200160405180910390208054905061117a9190612752565b8154811061118b5761118a612123565b5b90600052602060002090600702016004836040516111a991906127e6565b908152602001604051809103902082815481106111c9576111c8612123565b5b906000526020600020906007020160008201816000019080546111eb906120f1565b6111f692919061166c565b50600182018160010190805461120b906120f1565b61121692919061166c565b506002820154816002015560038201548160030155600482015481600401556005820181600501908054611249906120f1565b61125492919061166c565b50600682015481600601559050505b60048260405161127391906127e6565b908152602001604051809103902080548061129157611290612786565b5b6001900381819060005260206000209060070201600080820160006112b691906116f9565b6001820160006112c691906116f9565b6002820160009055600382016000905560048201600090556005820160006112ee91906116f9565b600682016000905550509055611312565b808061130a90612181565b915050611087565b50600560008381526020019081526020016000206000808201600061133791906116f9565b60018201600061134791906116f9565b60028201600090556003820160009055600482016000905560058201600061136f91906116f9565b600682016000905550505050565b60056020528060005260406000206000915090508060000180546113a0906120f1565b80601f01602080910402602001604051908101604052809291908181526020018280546113cc906120f1565b80156114195780601f106113ee57610100808354040283529160200191611419565b820191906000526020600020905b8154815290600101906020018083116113fc57829003601f168201915b50505050509080600101805461142e906120f1565b80601f016020809104026020016040519081016040528092919081815260200182805461145a906120f1565b80156114a75780601f1061147c576101008083540402835291602001916114a7565b820191906000526020600020905b81548152906001019060200180831161148a57829003601f168201915b5050505050908060020154908060030154908060040154908060050180546114ce906120f1565b80601f01602080910402602001604051908101604052809291908181526020018280546114fa906120f1565b80156115475780601f1061151c57610100808354040283529160200191611547565b820191906000526020600020905b81548152906001019060200180831161152a57829003601f168201915b5050505050908060060154905087565b60015481565b606060038054806020026020016040519081016040528092919081815260200182805480156115e157602002820191906000526020600020905b8160009054906101000a900473ffffffffffffffffffffffffffffffffffffffff1673ffffffffffffffffffffffffffffffffffffffff1681526020019060010190808311611597575b5050505050905090565b60026020528060005260406000206000915054906101000a900460ff1681565b60008054906101000a900473ffffffffffffffffffffffffffffffffffffffff1681565b6040518060e00160405280606081526020016060815260200160008152602001600081526020016000815260200160608152602001600081525090565b828054611678906120f1565b90600052602060002090601f01602090048101928261169a57600085556116e8565b82601f106116ab57805485556116e8565b828001600101855582156116e857600052602060002091601f016020900482015b828111156116e75782548255916001019190600101906116cc565b5b5090506116f59190611739565b5090565b508054611705906120f1565b6000825580601f106117175750611736565b601f0160209004906000526020600020908101906117359190611739565b5b50565b5b8082111561175257600081600090555060010161173a565b5090565b6000604051905090565b600080fd5b600080fd5b600080fd5b600080fd5b600080fd5b60008083601f84011261178f5761178e61176a565b5b8235905067ffffffffffffffff8111156117ac576117ab61176f565b5b6020830191508360018202830111156117c8576117c7611774565b5b9250929050565b600080602083850312156117e6576117e5611760565b5b600083013567ffffffffffffffff81111561180457611803611765565b5b61181085828601611779565b92509250509250929050565b600081519050919050565b600082825260208201905092915050565b6000819050602082019050919050565b600081519050919050565b600082825260208201905092915050565b60005b83811015611882578082015181840152602081019050611867565b83811115611891576000848401525b50505050565b6000601f19601f8301169050919050565b60006118b382611848565b6118bd8185611853565b93506118cd818560208601611864565b6118d681611897565b840191505092915050565b6000819050919050565b6118f4816118e1565b82525050565b600060e083016000830151848203600086015261191782826118a8565b9150506020830151848203602086015261193182826118a8565b915050604083015161194660408601826118eb565b50606083015161195960608601826118eb565b50608083015161196c60808601826118eb565b5060a083015184820360a086015261198482826118a8565b91505060c083015161199960c08601826118eb565b508091505092915050565b60006119b083836118fa565b905092915050565b6000602082019050919050565b60006119d08261181c565b6119da8185611827565b9350836020820285016119ec85611838565b8060005b85811015611a285784840389528151611a0985826119a4565b9450611a14836119b8565b925060208a019950506001810190506119f0565b50829750879550505050505092915050565b60006020820190508181036000830152611a5481846119c5565b905092915050565b611a65816118e1565b8114611a7057600080fd5b50565b600081359050611a8281611a5c565b92915050565b600060208284031215611a9e57611a9d611760565b5b6000611aac84828501611a73565b91505092915050565b600073ffffffffffffffffffffffffffffffffffffffff82169050919050565b6000611ae082611ab5565b9050919050565b611af081611ad5565b82525050565b6000602082019050611b0b6000830184611ae7565b92915050565b600080fd5b600060e08284031215611b2c57611b2b611b11565b5b81905092915050565b600060208284031215611b4b57611b4a611760565b5b600082013567ffffffffffffffff811115611b6957611b68611765565b5b611b7584828501611b16565b91505092915050565b611b8781611ad5565b8114611b9257600080fd5b50565b600081359050611ba481611b7e565b92915050565b600060208284031215611bc057611bbf611760565b5b6000611bce84828501611b95565b91505092915050565b600080fd5b7f4e487b7100000000000000000000000000000000000000000000000000000000600052604160045260246000fd5b611c1482611897565b810181811067ffffffffffffffff82111715611c3357611c32611bdc565b5b80604052505050565b6000611c46611756565b9050611c528282611c0b565b919050565b600067ffffffffffffffff821115611c7257611c71611bdc565b5b611c7b82611897565b9050602081019050919050565b82818337600083830152505050565b6000611caa611ca584611c57565b611c3c565b905082815260208101848484011115611cc657611cc5611bd7565b5b611cd1848285611c88565b509392505050565b600082601f830112611cee57611ced61176a565b5b8135611cfe848260208601611c97565b91505092915050565b60008060408385031215611d1e57611d1d611760565b5b600083013567ffffffffffffffff811115611d3c57611d3b611765565b5b611d4885828601611cd9565b9250506020611d5985828601611a73565b9150509250929050565b600082825260208201905092915050565b6000611d7f82611848565b611d898185611d63565b9350611d99818560208601611864565b611da281611897565b840191505092915050565b611db6816118e1565b82525050565b600060e0820190508181036000830152611dd6818a611d74565b90508181036020830152611dea8189611d74565b9050611df96040830188611dad565b611e066060830187611dad565b611e136080830186611dad565b81810360a0830152611e258185611d74565b9050611e3460c0830184611dad565b98975050505050505050565b600060e0830160008301518482036000860152611e5d82826118a8565b91505060208301518482036020860152611e7782826118a8565b9150506040830151611e8c60408601826118eb565b506060830151611e9f60608601826118eb565b506080830151611eb260808601826118eb565b5060a083015184820360a0860152611eca82826118a8565b91505060c0830151611edf60c08601826118eb565b508091505092915050565b60006020820190508181036000830152611f048184611e40565b905092915050565b6000602082019050611f216000830184611dad565b92915050565b600081519050919050565b600082825260208201905092915050565b6000819050602082019050919050565b611f5c81611ad5565b82525050565b6000611f6e8383611f53565b60208301905092915050565b6000602082019050919050565b6000611f9282611f27565b611f9c8185611f32565b9350611fa783611f43565b8060005b83811015611fd8578151611fbf8882611f62565b9750611fca83611f7a565b925050600181019050611fab565b5085935050505092915050565b60006020820190508181036000830152611fff8184611f87565b905092915050565b60008115159050919050565b61201c81612007565b82525050565b60006020820190506120376000830184612013565b92915050565b600061204882611ab5565b9050919050565b6120588161203d565b82525050565b6000602082019050612073600083018461204f565b92915050565b600081905092915050565b60006120908385612079565b935061209d838584611c88565b82840190509392505050565b60006120b6828486612084565b91508190509392505050565b7f4e487b7100000000000000000000000000000000000000000000000000000000600052602260045260246000fd5b6000600282049050600182168061210957607f821691505b6020821081141561211d5761211c6120c2565b5b50919050565b7f4e487b7100000000000000000000000000000000000000000000000000000000600052603260045260246000fd5b7f4e487b7100000000000000000000000000000000000000000000000000000000600052601160045260246000fd5b600061218c826118e1565b91507fffffffffffffffffffffffffffffffffffffffffffffffffffffffffffffffff8214156121bf576121be612152565b5b600182019050919050565b7f4e6f7420617574686f72697a6564000000000000000000000000000000000000600082015250565b6000612200600e83611d63565b915061220b826121ca565b602082019050919050565b6000602082019050818103600083015261222f816121f3565b9050919050565b600080fd5b600080fd5b600080fd5b6000808335600160200384360303811261226257612261612236565b5b80840192508235915067ffffffffffffffff8211156122845761228361223b565b5b6020830192506001820236038313156122a05761229f612240565b5b509250929050565b600082905092915050565b60008190508160005260206000209050919050565b60006020601f8301049050919050565b600082821b905092915050565b6000600883026123157fffffffffffffffffffffffffffffffffffffffffffffffffffffffffffffffff826122d8565b61231f86836122d8565b95508019841693508086168417925050509392505050565b6000819050919050565b600061235c612357612352846118e1565b612337565b6118e1565b9050919050565b6000819050919050565b61237683612341565b61238a61238282612363565b8484546122e5565b825550505050565b600090565b61239f612392565b6123aa81848461236d565b505050565b5b818110156123ce576123c3600082612397565b6001810190506123b0565b5050565b601f821115612413576123e4816122b3565b6123ed846122c8565b810160208510156123fc578190505b612410612408856122c8565b8301826123af565b50505b505050565b600082821c905092915050565b600061243660001984600802612418565b1980831691505092915050565b600061244f8383612425565b9150826002028217905092915050565b61246983836122a8565b67ffffffffffffffff81111561248257612481611bdc565b5b61248c82546120f1565b6124978282856123d2565b6000601f8311600181146124c657600084156124b4578287013590505b6124be8582612443565b865550612526565b601f1984166124d4866122b3565b60005b828110156124fc578489013582556001820191506020850194506020810190506124d7565b868310156125195784890135612515601f891682612425565b8355505b6001600288020188555050505b50505050505050565b61253a83838361245f565b505050565b6000813561254c81611a5c565b80915050919050565b60008160001b9050919050565b60007fffffffffffffffffffffffffffffffffffffffffffffffffffffffffffffffff61258e84612555565b9350801983169250808416831791505092915050565b6125ad82612341565b6125c06125b982612363565b8354612562565b8255505050565b60008101600083016125d98185612245565b6125e481838661252f565b5050505060018101602083016125fa8185612245565b61260581838661252f565b5050505060028101604083018061261b8161253f565b905061262781846125a4565b50505060038101606083018061263c8161253f565b905061264881846125a4565b50505060048101608083018061265d8161253f565b905061266981846125a4565b5050506005810160a0830161267e8185612245565b61268981838661252f565b505050506006810160c083018061269f8161253f565b90506126ab81846125a4565b5050505050565b6126bc82826125c7565b5050565b7f4f6e6c79207468652061646d696e6973747261746f722063616e2063616c6c2060008201527f746869732066756e6374696f6e00000000000000000000000000000000000000602082015250565b600061271c602d83611d63565b9150612727826126c0565b604082019050919050565b6000602082019050818103600083015261274b8161270f565b9050919050565b600061275d826118e1565b9150612768836118e1565b92508282101561277b5761277a612152565b5b828203905092915050565b7f4e487b7100000000000000000000000000000000000000000000000000000000600052603160045260246000fd5b60006127c082611848565b6127ca8185612079565b93506127da818560208601611864565b80840191505092915050565b60006127f282846127b5565b91508190509291505056fea2646970667358221220da54c84e8cf87279ba0a5bfd28ef5aa1728d930cea2b0cfd5489dc18ece74aa364736f6c634300080a0033",
  "immutableReferences": {},
  "source": "pragma solidity ^0.8.10;\n\nlibrary Shared {\n    struct RealState {\n        string city;\n        string street;\n        uint number;\n        uint meters;\n        uint registration;\n        string owner;\n        uint price;//nuevo campo\n    \n    }\n    \n}\n\n\ncontract RealStateContractCities {\n    address payable public administrator  = payable(0x50d3b84a2b1787b7704DD50c67733b6b5B293629);\n     uint public authorizedAddressesCount;\n    \n    mapping(address => bool) public authorizedAddresses;\n    address[] public authorizedAddressesList;\n    modifier onlyAdministrator() {\n        require(msg.sender == administrator, \"Only the administrator can call this function\");\n        _;\n    } \n    mapping( string => Shared.RealState[]) public realStateMap;\n    mapping(uint => Shared.RealState) public globalRealStateMap;\n   \nfunction addAuthorizedAddress(address _newAuthorized) public onlyAdministrator {\n        authorizedAddresses[_newAuthorized] = true;\n        authorizedAddressesList.push(_newAuthorized);\n    }\n\n\nfunction removeAuthorizedAddress(address _authorizedToRemove) public onlyAdministrator {\n        authorizedAddresses[_authorizedToRemove] = false;\n        // Encuentra y elimina la direccin de la lista\n        for (uint i = 0; i < authorizedAddressesList.length; i++) {\n            if (authorizedAddressesList[i] == _authorizedToRemove) {\n                authorizedAddressesList[i] = authorizedAddressesList[authorizedAddressesList.length - 1];\n                authorizedAddressesList.pop();\n                break;\n            }\n        }\n    }\nfunction getAuthorizedAddresses() public view returns (address[] memory) {\n        return authorizedAddressesList;\n    }\n\n\nfunction getRealStateByRegistration(uint _registration) public view returns (Shared.RealState memory) {\n        return globalRealStateMap[_registration];\n    }\n\nfunction getRealStateByCity (string calldata _city) public view returns(Shared.RealState[] memory) {\n        Shared.RealState[] memory result = realStateMap[_city];\n        for (uint i = 0; i < result.length; i++) {\n            if (msg.sender != administrator && !authorizedAddresses[msg.sender]) {\n                // Si el solicitante no es el administrador ni una direccin autorizada, ocultar el precio\n                result[i].price = 0;\n            }\n        }\n        return result;\n   }\nfunction addRealState(Shared.RealState calldata realState) public  {\n        require(msg.sender == administrator || authorizedAddresses[msg.sender], \"Not authorized\");\n\n        // Verificar si ya existe un RealState con el mismo registro\n        Shared.RealState storage existingRealState = globalRealStateMap[realState.registration];\n\n        if (existingRealState.registration != 0) {\n               \n            // Eliminar el RealState existente\n            deleteRealStateByRegistration(realState.registration);\n        }\n\n        realStateMap[realState.city].push(realState);\n        globalRealStateMap[realState.registration] = realState;\n       \n    }\n\n      function deleteRealStateByRegistration(uint _registration) public {\n        // Obtener la ciudad del RealState a eliminar\n        string memory city = globalRealStateMap[_registration].city;\n\n        // Encontrar y eliminar el RealState en el mapeo por ciudad\n        for (uint i = 0; i < realStateMap[city].length; i++) {\n            if (realStateMap[city][i].registration == _registration) {\n                 // Reorganizar el array despus de la eliminacin\n                if (i < realStateMap[city].length - 1) {\n                    realStateMap[city][i] = realStateMap[city][realStateMap[city].length - 1];\n                }\n                // Reducir la longitud del array\n                realStateMap[city].pop();\n            \n                break;\n            }\n        }\n\n        // Eliminar el RealState del mapeo global\n        delete globalRealStateMap[_registration];\n    }\n\n}\n\n\ncontract RealStateContract{\n        struct RealState {\n        string city;\n        string street;\n        uint number;\n        uint meters;\n        uint registration;\n        string owner;\n\n    }\n    RealState[] public realStateArray;\n    \n    function addRealState(string calldata _city, string calldata _street, \n            uint _number, uint _meters, uint _registration, string calldata _owner) public {\n           // Verificar si ya existe una propiedad con el mismo registration\n        for (uint i = 0; i < realStateArray.length; i++) {\n            if (realStateArray[i].registration == _registration) {\n                 realStateArray.push(RealState(_city,_street,_number,_meters,_registration,_owner));\n                // Eliminar el RealState existente\n                deleteRealStateByRegistration(_registration);\n                break;\n            }\n        }\n        \n        realStateArray.push(RealState(_city,_street,_number,_meters,_registration,_owner));\n    }\n    \n      function getRealStateByRegistration (uint _registration) public view returns(RealState memory) {\n        for(uint i =0; i < realStateArray.length; i++){\n            if (realStateArray[i].registration == _registration){\n                return realStateArray[i];\n            }\n        }\n                revert(\"Not found RealState with this registration\");\n    }\n    function deleteRealStateByRegistration(uint _registration) public {\n        for(uint i =0; i < realStateArray.length; i++){\n            if (realStateArray[i].registration == _registration){\n                delete realStateArray[i];\n\n                for(uint j =i; j < realStateArray.length-1; j++){\n                    realStateArray[j] = realStateArray[j+1];\n                }\n\n                realStateArray.pop(); // delete the last\n                // Important to reduce -1 the leght of array\n\n                return; // for finish method\n            }\n        }\n    }\n   \n    function getRealStateByCity (string calldata _city) public view returns(RealState[] memory) {\n        uint resultLength = 0;\n        for(uint i =0; i < realStateArray.length; i++){\n            if (keccak256(bytes(realStateArray[i].city)) == keccak256(bytes(_city))){\n                resultLength++;\n            }\n        }\n        RealState[] memory rsReturn = new RealState[](resultLength);\n\n        uint positionInsert = 0;\n        for(uint i =0; i < realStateArray.length; i++){\n            if (keccak256(bytes(realStateArray[i].city)) == keccak256(bytes(_city))){\n                rsReturn[positionInsert] = realStateArray[i];\n                positionInsert++;\n            }\n        }\n\n        return rsReturn;\n    }\n\n    \n\n\n\n}\n",
  "sourcePath": "/Users/tonny/blockchain/estructura de datos/MyContracts3/contracts/RealStateContract.sol",
  "compiler": {
    "name": "solc",
    "version": "0.8.10+commit.fc410830.Emscripten.clang"
  },
  "schemaVersion": "3.4.16",
  "updatedAt": "2024-01-10T07:30:03.509Z",
  "networkType": "ethereum",
  "devdoc": {
    "kind": "dev",
    "methods": {},
    "version": 1
  },
  "userdoc": {
    "kind": "user",
    "methods": {},
    "version": 1
  }
}